:020000040000FA
:100000000C94B1000C94F0120C94C9120C946F1360
:100010000C946F130C946F130C94D9000C94D900AA
:100020000C94D9000C94D9000C94D9000C94D900EC
:100030000C94D9000C94D9000C94D9000C94D900DC
:100040000C947F120C94D9000C943D130C9417134C
:100050000C94D9000C94D9000C94D9000C94D900BC
:100060000C94E7130C94D900084AD73B3BCE016EA1
:1000700084BCBFFDC12F3D6C74319ABD56833DDAFF
:100080003D00C77F11BED9E4BB4C3E916BAAAABE0E
:10009000000000803F00446F6E65210A0043616CE0
:1000A00063756C6174696E67206F666673657473DF
:1000B0002C20646F206E6F74206D6F7665204D501C
:1000C000553630353000436F756C64206E6F742088
:1000D000636F6E6E65637420746F204D50553630BB
:1000E00035302C2072657374617274696E672E2EC0
:1000F0002E004D5055363035302073746174757351
:100100003A200000000000240027002A0000000020
:1001100008000201000003040700000000000000C6
:100120000000000000230026002900000000002538
:100130000028002B00040404040404040402020246
:100140000202020303030303030102040810204018
:100150008001020408102001020408102000061586
:10016000421C11241FBECFEFD8E0DEBFCDBF25E07B
:10017000A6ECB1E001C01D92AC30B207E1F711E08E
:10018000A0E0B1E0E2E6F3E402C005900D92A63CE7
:10019000B107D9F710E0C0EBD0E004C02197FE0111
:1001A0000E947920CF3AD107C9F70E945A170C94C0
:1001B000A4210C940000833081F028F4813099F060
:1001C0008230A9F008958730A9F08830C9F08430D2
:1001D000B1F4809180008F7D03C0809180008F7783
:1001E00080938000089584B58F7784BD089584B589
:1001F0008F7DFBCF8091B0008F778093B000089502
:100200008091B0008F7DF9CFCF93DF93282F30E01E
:10021000F901E35FFE4F8491F901E75BFE4FD49152
:10022000F901EB5CFE4FC491CC23A1F081110E9437
:10023000DB00EC2FF0E0EE0FFF1FEF5DFE4FA5910E
:10024000B491EC91ED2381E090E009F480E0DF913E
:10025000CF91089580E090E0FACF1F93CF93DF9382
:10026000282F30E0F901E35FFE4F8491F901E75B4D
:10027000FE4FD491F901EB5CFE4FC491CC23A9F061
:10028000162F81110E94DB00EC2FF0E0EE0FFF1F14
:10029000E55DFE4FA591B4918FB7F894EC911111E3
:1002A00008C0D095DE23DC938FBFDF91CF911F91E3
:1002B0000895DE2BF8CFCF93DF9390E0FC01E75B4E
:1002C000FE4F24918B5C9E4FFC0184918823C9F0E2
:1002D00090E0880F991FFC01ED5FFE4FA591B4914E
:1002E000FC01E55DFE4FC591D49161110DC09FB732
:1002F000F8948C91209582238C93888128232883DD
:100300009FBFDF91CF910895623051F49FB7F89469
:100310003C91822F809583238C93E8812E2BEFCF05
:100320008FB7F894EC912E2B2C938FBFEACF1F93AD
:10033000CF93DF93182FEB0161E00E945B012097C0
:1003400039F460E0812FDF91CF911F910C942D0142
:10035000CF3FD10511F461E0F5CFE12FF0E0E35F8D
:10036000FE4FE491E33031F140F4E130B1F0E2309E
:10037000E1F0C038D1057CF7E4CFE73029F1E8306F
:1003800059F1E430B1F78091800080628093800061
:10039000D0938B00C0938A0004C084B5806884BD6C
:1003A000C7BDDF91CF911F91089584B5806284BD50
:1003B000C8BDF7CF80918000806880938000D09383
:1003C0008900C0938800EDCF8091B0008068809351
:1003D000B000C093B300E5CF8091B00080628093FD
:1003E000B000C093B400DDCF3FB7F89480911C03F8
:1003F00090911D03A0911E03B0911F0326B5A89BE9
:1004000005C02F3F19F00196A11DB11D3FBFBA2FA6
:10041000A92F982F8827BC01CD01620F711D811D66
:10042000911D42E0660F771F881F991F4A95D1F7EB
:1004300008958F929F92AF92BF92CF92DF92EF92E8
:10044000FF924B015C010E94F4016B017C010E9450
:10045000F4016C197D098E099F09683E734081057E
:100460009105A8F321E0821A9108A108B10888EE4D
:10047000C80E83E0D81EE11CF11C81149104A10474
:10048000B10429F7FF90EF90DF90CF90BF90AF902D
:100490009F908F900895CF93DF9382E00E94040194
:1004A000EC0184E00E940401E1E0892B09F4E0E022
:1004B00081E0CD2B09F480E09091C6012091D0011C
:1004C0003091D1014091D2015091D3016091D4017A
:1004D0007091D5019817E1F08091D6019091D701E4
:1004E000A1E00E943B202093D0013093D1014093A2
:1004F000D2015093D3016093D4017093D5018093BE
:10050000D6019093D701E093C601DF91CF91089572
:100510008091D6019091D701AFEFE3CFCF93DF93D6
:1005200083E00E940401EC018BE00E940401E1E001
:10053000892B09F4E0E081E0CD2B09F480E0909173
:10054000C7012091C8013091C9014091CA01509161
:10055000CB016091CC017091CD019817E1F08091B1
:10056000CE019091CF01A1E00E943B202093C801D1
:100570003093C9014093CA015093CB016093CC01E1
:100580007093CD018093CE019093CF01E093C7018A
:10059000DF91CF9108958091CE019091CF01AFEF7F
:1005A000E3CF089508950895AF92BF92CF92DF925E
:1005B000EF92FF920F931F93CF93DF936C017B0118
:1005C0008B01040F151FEB015E01AE18BF08C017A9
:1005D000D10759F06991D601ED91FC910190F0811C
:1005E000E02DC6010995892B79F7C501DF91CF91DF
:1005F0001F910F91FF90EF90DF90CF90BF90AF9041
:100600000895FC01538D448D252F30E0842F90E018
:10061000821B930B541710F0CF96089501970895FD
:10062000FC01918D828D981761F0A28DAE0FBF2FC6
:10063000B11D5D968C91928D9F5F9F73928F90E01C
:1006400008958FEF9FEF0895FC01918D828D98178B
:1006500031F0828DE80FF11D858D90E008958FEFC8
:100660009FEF0895FC01918D228D892F90E0805C91
:100670009F4F821B91098F739927089580E793E01C
:100680000E94320321E0892B09F420E0822F089593
:1006900080E090E0892B29F00E943E0381110C94A8
:1006A00000000895FC01A48DA80FB92FB11DA35A15
:1006B000BF4F2C91848D90E001968F739927848F82
:1006C000A689B7892C93A089B1898C9183708064A5
:1006D0008C93938D848D981306C00288F389E02D46
:1006E00080818F7D80830895EF92FF920F931F93F7
:1006F000CF93DF93EC0181E0888F9B8D8C8D9813D5
:100700001AC0E889F989808185FF15C09FB7F894E0
:10071000EE89FF896083E889F9898081837080642C
:1007200080839FBF81E090E0DF91CF911F910F9177
:10073000FF90EF900895F62E0B8D10E00F5F1F4F86
:100740000F731127E02E8C8D8E110CC00FB607FC95
:10075000FACFE889F989808185FFF5CFCE010E9423
:100760005203F1CFEB8DEC0FFD2FF11DE35AFF4F3C
:10077000F0829FB7F8940B8FEA89FB8980818062B1
:10078000CFCF0F931F93CF93DF938C01D0E0C0E0C6
:10079000F801EC0FFD1F6491662341F080E793E0C0
:1007A0000E947403892B11F02196F2CFCE01DF91C4
:1007B000CF911F910F910895CF93DF93EC01888D16
:1007C0008823B9F0AA89BB89E889F9898C9185FDCC
:1007D00003C0808186FD0DC00FB607FCF7CF8C915A
:1007E00085FFF2CF808185FFEDCFCE010E945203BD
:1007F000E9CFDF91CF910895209186023091870251
:100800002817390771F49091850280918402981716
:1008100041F0E0918502F0E0EC5BFD4F808190E0DB
:1008200008958FEF9FEF08950895EF92FF920F9331
:100830001F93CF93DF93DC015C96ED90FC905D9766
:10084000E114F10479F481E090E013969C938E9387
:10085000129790E080E0DF91CF911F910F91FF9070
:10086000EF9008955196ED91FC91529750968C918E
:100870005097982F90950FB75E962C915E97122FF8
:10088000127021FD6095F8942081112319F1282B15
:100890002083E7012197F1F728E0462F50E03081CF
:1008A00060FF1AC0382B3083E7012197F1F7BA01B6
:1008B00075956795215089F7112381F080818923EF
:1008C00080830FBF5C968D919C910197F1F781E039
:1008D00090E0C1CF2923DCCF3923E5CF9081892B4C
:1008E000EFCF20918602309187022817390761F4F3
:1008F000809184022091850290E0805C9F4F821B52
:1009000091098F739927089590E080E008952091D0
:1009100086023091870228173907B9F49091850231
:1009200080918402981789F0E0918502F0E0EC5BF9
:10093000FD4F80812091850230E02F5F3F4F2F7364
:1009400033272093850290E008958FEF9FEF08955D
:1009500020910102260F3327331F21323105ECF499
:1009600020914603FC0190E080E0243069F082E0B1
:100970000895A09101022191AC014F515E4FA40F47
:10098000B52FB11D2C930196861798F38091010223
:10099000680F6093010280E0089581E0089510924D
:1009A000460381E0809345031092200361E082E1D9
:1009B0000E942D0161E083E10E942D01E9EBF0E04E
:1009C00080818E7F808380818D7F808388E4809387
:1009D000B80085E48093BC000895CF93DF9391E045
:1009E0009093E0018823B9F0C091B800D091BA008B
:1009F0008091BC008A7B8093BC0060E082E10E9411
:100A00002D0160E083E10E942D010E94CF04D0936C
:100A1000BA00C093B800DF91CF9108958F929F9252
:100A2000AF92BF92CF92DF92EF92FF920F931F93FC
:100A3000CF93DF93D0916F03D13208F0D7C0182F36
:100A4000C0916E030E94F4016B017C01809146030A
:100A500081116BC082E080934603109345038FEFB2
:100A60008093440310924303D0934203AEE4B3E077
:100A7000E2E2F3E080E0D81391C01092210380916C
:100A80002103CC0FC82BC093210380912003813018
:100A900009F088C0109220030E94F4016B017C01D0
:100AA000809121038093BB0080914803909149037A
:100AB000A0914A03B0914B03892B8A2B8B2BA1F079
:100AC0000E94F401009148031091490320914A03C8
:100AD00030914B036C197D098E099F090617170782
:100AE0002807390708F442C08091BC0083FDD8CFA5
:100AF00085EC8093BC000E94F4016B017C01809125
:100B00004603823009F450C0809144038F3F09F4BA
:100B10006FC080914403803209F46CC0809144031B
:100B2000803309F469C084E026C080914803909125
:100B30004903A0914A03B0914B03892B8A2B8B2B3D
:100B400009F484CF0E94F4018090480390904903F7
:100B5000A0904A03B0904B036C197D098E099F0940
:100B600086169706A806B90608F070CF809147034D
:100B70000E94ED0485E010924D0310926F031092D5
:100B80004C03DF91CF911F910F91FF90EF90DF9079
:100B9000CF90BF90AF909F908F9008959D9191932B
:100BA0008F5F69CF85EEA5CF80914803909149036F
:100BB000A0914A03B0914B03892B8A2B8B2B09F40C
:100BC0009ECF0E94F40100914803109149032091A7
:100BD0004A0330914B036C197D098E099F09061752
:100BE00017072807390708F08ACFC0CF81E0C3CFA5
:100BF00080E0C1CF82E0BFCF83E0BDCF1F93CF9312
:100C0000DF93162FCDE8D4E0A981BA819B8121E042
:100C100020934C0390936E0310924D0310926F0338
:100C2000ED91FC9111970190F081E02D682FCD019D
:100C3000099589819A81DC01ED91FC910190F08107
:100C4000E02D612F099581E0DF91CF911F910C94E8
:100C50000E05E0918D0280918C02E81730F4F0E0EF
:100C6000EC5DFD4F808190E008958FEF9FEF089538
:100C700090918D0280918C022FEF3FEF981748F4EE
:100C8000E92FF0E0EC5DFD4F208130E09F5F909315
:100C90008D02C901089580918C0290918D02891B6B
:100CA000990B0895CF92DF92EF92FF920F931F93CB
:100CB000CF93DF937C01CB018A0120914C03222347
:100CC00089F0EB016B01C40ED51ECC15DD0569F072
:100CD0006991D701ED91FC910190F081E02DC70160
:100CE0000995F3CF642F0E94A804C801DF91CF912A
:100CF0001F910F91FF90EF90DF90CF900895CF93C9
:100D0000DF931F92CDB7DEB7698320914C03222376
:100D1000F9F020916F03203258F021E030E0FC011F
:100D20003383228390E080E00F90DF91CF9108958C
:100D300080914D03E82FF0E0E25BFC4F99819083B6
:100D40008F5F80934D0380936F0381E090E0ECCF41
:100D500061E0CE0101960E94A804F7CF90E080E008
:100D60000895611105C091E0883040F490E006C01C
:100D7000613031F4877091E08730C0F7892F089592
:100D8000623021F491E08833C8F3F0CF6330B1F7DB
:100D9000877091E099F7EACF2091110390911603A3
:100DA000291B330B283F9FEF3907A9F1213031056B
:100DB000A1F12830310599F12F3F3F4F09F483E02D
:100DC00090E0049620911303821B910964E070E087
:100DD0000E94F51F8093150390919002980F9370D5
:100DE0009093900290918F02980F937090938F023E
:100DF00090918E02890F837080938E0280E090E044
:100E0000A0E8BFE38093040190930501A09306013D
:100E1000B0930701089580E0D3CF81E0D1CF82E085
:100E2000CFCFCF92DF92EF92FF928E3008F08E50AC
:100E30008770806480937C0080917A0080648093C6
:100E40007A0080917A0086FDFCCF609178007091E5
:100E50007900072E000C880B990B0E94651C20E07E
:100E600030E040EA5BE30E94C41C9B01AC0160E0FF
:100E700070E080E591E40E94611E6B017C0120E03E
:100E800030E040EF51E40E94841F181634F4C12C66
:100E9000D12C80EFE82E81E4F82EC701B601FF9037
:100EA000EF90DF90CF900895CF93DF93CBE7D4E01E
:100EB0008C859D850E941107688379838A839B8333
:100EC0008E859F850E9411076C837D838E839F830F
:100ED000888999890E941107688779878A879B8703
:100EE00062E370E080E090E0DF91CF910C94190212
:100EF000FC0120813181C90137FF04C0882799276F
:100F0000821B930B4817590784F481E090E037FF68
:100F100002C08FEF9FEF849F9001859F300D949FBB
:100F2000300D112431832083089586179707E4F745
:100F300081E090E037FF02C08FEF9FEF869F900126
:100F4000879F300D969F300D1124ECCFCF93DF9308
:100F50002FB7F8948091D0019091D101A091D20146
:100F6000B091D301C091D401D091D501E091D601C7
:100F7000F091D70191958195910990937004809398
:100F80006F044091C8013091C9018091CA018091DC
:100F9000CB018091CC018091CD018091CE018091D7
:100FA000CF0140936304309364042FBFDF91CF914E
:100FB00008954F925F926F927F928F929F92AF921D
:100FC000BF92CF92DF92EF92FF920F931F93CF9336
:100FD000DF9300D000D000D0CDB7DEB78C016B011D
:100FE0007A010E94F4016B837C838D839E83F801D8
:100FF00084899589A689B7892B813C814D815E8141
:101000000097A105B10509F4BDC0281B390B4A0B97
:101010005B0BCA01B9010E94631C20E034E244E783
:1010200059E40E94611E4B015C01B6016E197F09F3
:10103000072E000C880B990B0E94651C6B017C012C
:1010400020E030E0A901C501B4010E94841F1816F8
:101050000CF094C0A5019401C701B6010E94C41C04
:101060009B01AC01D8011C966D917D918D919C9155
:101070001F970E94831DF80164877587868797876D
:101080002089318942895389C701B6010E94821D96
:10109000A50194010E94611E4B015C01D8011C96C0
:1010A0002D913D914D915C911F9714966D917D917D
:1010B0008D919C9117970E94C41C2B013C01F80153
:1010C0002081318142815381C701B6010E94C41C35
:1010D0009B01AC01C301B2010E94831D2B013C01A5
:1010E000D80118962D913D914D915C911B97C501AA
:1010F000B4010E94C41C9B01AC01C301B2010E9457
:10110000831D0E94D31E7A836983F801428D538D1B
:10111000608D718DCE0101960E947807D80150969E
:10112000CD92DD92ED92FC9253972B813C814D81C3
:101130005E8154962D933D934D935C9357976981AF
:101140007A81072E000C880B990B0E94651C26964D
:101150000FB6F894DEBF0FBECDBFDF91CF911F91C8
:101160000F91FF90EF90DF90CF90BF90AF909F9046
:101170008F907F906F905F904F900895812C912C6D
:1011800054018CCF248B358B468B578B812C912C23
:1011900054014BCFCF93DF93EC0160E088850E9430
:1011A0002D0160E08A850E942D0170E060E08E8153
:1011B000DF91CF910C9497010F931F93CF93DF93FF
:1011C000EC018B011616170684F461E088850E94F5
:1011D0002D0160E08A850E942D01B8018E81DF918A
:1011E000CF911F910F910C949701672B31F4DF91F0
:1011F000CF911F910F910C94CA0860E088850E94DE
:101200002D0161E08A850E942D0166277727601BEA
:10121000710BE4CF4F925F926F927F928F929F9269
:10122000AF92BF92CF92DF92EF92FF920F931F93F4
:10123000CF93DF93CDB7DEB72E970FB6F894DEBF0E
:101240000FBECDBF8C01DC0111968D919C91129740
:1012500013962C9131E030934C0320936E0310923F
:101260004D0310926F03DC01ED91FC910190F08130
:10127000E02D6BE3099580E00E940E05F801F380F4
:101280000E94F4014B015C0180914603811166C00C
:1012900081E080934603809345039FEF909344033E
:1012A000109243039DE09093420380932103809129
:1012B0002103FF0CF82AF092210380912003813052
:1012C00009F087C1109220030E94F4014B015C01D8
:1012D000809121038093BB00809148039091490342
:1012E000A0914A03B0914B03892B8A2B8B2BA1F041
:1012F0000E94F401409048035090490360904A03D3
:1013000070904B03681979098A099B09461657069C
:101310006806790608F443C08091BC0083FDD8CFED
:1013200085EC8093BC000E94F4014B015C0180912C
:101330004603813009F44FC1809143038E3008F099
:101340006CC180914303A2E2B3E0E4E2F2E090E0FA
:10135000981751F12D9121939F5FFACF8091480307
:1013600090914903A0914A03B0914B03892B8A2B9A
:101370008B2B09F489CF0E94F401409048035090D0
:10138000490360904A0370904B03681979098A09F0
:101390009B09461657066806790608F075CF8091B6
:1013A00047030E94ED0480E010928D0280938C022E
:1013B000CE0101967C015E019FE0A90EB11CD8010F
:1013C00011968D919C91DC01ED91FC910284F38545
:1013D000E02D0995982EF80181819281DC01ED9133
:1013E000FC910284F385E02D0995C12C8C29992963
:1013F000F701819391937F01AE16BF0601F7D801E3
:101400001896CD90DD90ED90FC901B9769817A81C4
:10141000072E000C880B990B0E94651CA7019601F2
:101420000E94611EF801208D318D428D538D0E94E6
:10143000821DD80198966D937D938D939C939B9775
:101440006B817C81072E000C880B990B0E94651C18
:10145000A70196010E94611EF801248D358D468DED
:10146000578D0E94821DD8019C966D937D938D931C
:101470009C939F978C9161E06827681B770B072EE0
:10148000000C880B990B0E94651C4B015C016D815F
:101490007E81072E000C880B990B0E94651C9B0116
:1014A000AC01C501B4010E94C41CA70196010E94B1
:1014B000611EF80120A131A142A153A10E94821D09
:1014C000D801D0966D937D938D939C93D3976F8124
:1014D0007885072E000C880B990B0E94651C20E074
:1014E00030EF41E456E40E94831D20E030E04AEAF8
:1014F00053E40E94611EF80164A375A386A397A319
:10150000C480D580E680F78069857A85072E000C37
:10151000880B990B0E94651CA70196010E94611E11
:10152000D8011C962D913D914D915C911F970E9481
:10153000821DF80164AB75AB86AB97AB6B857C8580
:10154000072E000C880B990B0E94651CA7019601C1
:101550000E94611ED80150962D913D914D915C9154
:1015600053970E94821DF80160AF71AF82AF93AFB5
:101570006D857E85072E000C880B990B0E94651CDB
:10158000A70196010E94611ED80154962D913D91AC
:101590004D915C9157970E94821DF80164AF75AF21
:1015A00086AF97AF2E960FB6F894DEBF0FBECDBFB5
:1015B000DF91CF911F910F91FF90EF90DF90CF902F
:1015C000BF90AF909F908F907F906F905F904F9063
:1015D000089585EEA6CE8091480390914903A0918D
:1015E0004A03B0914B03892B8A2B8B2B09F49FCE96
:1015F0000E94F401409048035090490360904A03D0
:1016000070904B03681979098A099B094616570699
:101610006806790608F08BCEC2CE8EE094CEFC012F
:1016200001900020E9F73197AF01481B590BBC012D
:1016300080E793E00C94D402CF93DF930E94C10320
:10164000EC018CE491E00E940F0B8C0F9D1FDF9149
:10165000CF9108958F929F92AF92BF920F931F9355
:10166000CF93DF93CDB7DEB7A1970FB6F894DEBF67
:101670000FBECDBF19A2423008F44AE08E010F5DC3
:101680001F4F842E912CB12CA12CA50194010E94F6
:101690000920E62FB901CA01EA30F4F4E05DD8016F
:1016A000EE938D01232B242B252B79F790E080E0FE
:1016B000109719F0CD010E940F0BA1960FB6F89468
:1016C000DEBF0FBECDBFDF91CF911F910F91BF90B5
:1016D000AF909F908F900895E95CE1CFCF93DF9317
:1016E0000E940F0BEC018CE491E00E940F0B8C0F19
:1016F0009D1FDF91CF9108952F923F924F925F925D
:101700006F927F928F929F92AF92BF92CF92DF9211
:10171000EF92FF920F931F93CF93DF93CDB7DEB776
:101720006B970FB6F894DEBF0FBECDBF20E030EC54
:101730004FE854E40E94C41C0E94D31E6B877E8332
:101740000E94A60780916F049091700498878F8300
:101750009F819C8788858D87282E220C2208809166
:101760006304909164049A87898799859E878A8506
:101770008F87382E330C33089E81990F990B9D83E8
:10178000EB853091700420916F04932F990F990B82
:10179000492F592F692F792F892FAC84BD84C22CF2
:1017A000D22CE22CF22C022D122D0E94472079011E
:1017B0008A01B62FF72F6C01A0E00E9459203CF45B
:1017C0000E942B2079018A01B62FF72F6C01970117
:1017D000A8016B2F7F2FC601AE2EBE80CD80DC2CE2
:1017E000EC2CFC2C0C2D1C2D0E9450208CF13091E7
:1017F000640420916304932F990F990B492F592F5B
:10180000692F792F892FAE84BF84C32CD32CE32C6E
:10181000F32C032D132D0E94472059016A017B01EF
:101820008C01A0E00E94592034F40E942B20590121
:101830006A017B018C012E2F3E814D81542F642F34
:10184000742F842F942F0E94502009F00CF46AC04A
:101850000E94A6070E94540720E030E040EA51E4CD
:1018600060917F0470918004809181049091820442
:101870000E945E1C87FFA7C020E030E040E051E4FA
:1018800060917F0470918004809181049091820422
:101890000E94821D9F7720E030E040E05FE30E94DD
:1018A000841F87FD33C00E94540720E030E040E0F1
:1018B00051E460917F047091800480918104909143
:1018C00082040E94821D20915F0430916004409147
:1018D0006104509162040E94C41C0E94D31E7A834A
:1018E000698346E950E062E370E0CE0101960E9410
:1018F000780769817A8183E694E00E94DC08698137
:101900007A818FE694E00E94DC08B6CF83E694E00B
:101910000E94CA088FE694E00E94CA088FE491E012
:101920000E946E0B83E694E00E94CA088FE694E062
:101930000E94CA0810922B0410922C0410922D04BD
:1019400010922E0410922F04109230041092310441
:101950001092320410923304109234041092350421
:1019600010923604109247041092480410924904D1
:1019700010924A0410924B0410924C0410924D04A1
:1019800010924E0410924F04109250041092510481
:10199000109252046B960FB6F894DEBF0FBECDBF07
:1019A000DF91CF911F910F91FF90EF90DF90CF903B
:1019B000BF90AF909F908F907F906F905F904F906F
:1019C0003F902F90089540906F0450907004952D93
:1019D000990F990B9201492F592F692F792F892F30
:1019E000AC84BD84C22CD22CE22CF22C022D122D00
:1019F0000E94472039014A01B62FA72FF82FE92F5F
:101A00003091640420916304932F990F990B492F0F
:101A1000592F692F792F892FAE84BF84C32CD32CE3
:101A2000E32CF32C032D132D0E94472059016A014A
:101A30007B018C019301A4016B2F7A2F8F2F9E2F96
:101A40000E9447200E94091F688B798B8A8B9B8B91
:101A5000A2018F819885481B590B6B857E818BE392
:101A600094E00E94D9076C8B7D8B8E8B9F8B40916D
:101A700063045091640489859A85481B590B6B85D2
:101A80007E818FE194E00E94D907688F798F8A8FD9
:101A90009B8F0E94540780907B0490907C04A090C0
:101AA0007D04B0907E0420E030E040EA51E4C501BE
:101AB000B4010E945E1CC0908304D0908404E09026
:101AC0008504F090860487FFA2C040905704509090
:101AD00058046090590470905A0420E030E040EAC5
:101AE00051E4C701B6010E945E1CA701960187FD63
:101AF00004C020E030E040E251E4C501B4010E949E
:101B0000821DA30192010E94C41C0E94D31E6B017E
:101B10008BE691E00E940F0B0D2C000CEE08FF08E5
:101B20004AE0C701B601F7FE0DC06DE280E793E021
:101B30000E94740366277727CB016C197D098E09F3
:101B40009F094AE00E942A0B8CE491E00E940F0B4F
:101B500020915B0430915C0440915D0450915E04DF
:101B6000688979898A899B890E94C41C2AE939E994
:101B700049E95EE30E94C41C4B015C01C701B60148
:101B80000E94651C23E333E343E35FE30E94C41C2C
:101B90006B017C01A50194016C897D898E899F89E7
:101BA0000E94821DA70196010E94831D0E94D31EE0
:101BB0007A836983288D398D4A8D5B8DC501B40187
:101BC0000E94831DA70196010E94821D0E94D31EC0
:101BD0007C836B8346E950E062E370E0CE010196BE
:101BE0000E94780746E950E062E370E0CE01039678
:101BF0000E9478076B817C8183E694E00E94DC0878
:101C000069817A818FE694E00E94DC08B9CD20E0FA
:101C100030E040EA51E4C701B6010E945E1C87FF34
:101C200011C0A701960160E070E080E291E40E949B
:101C3000821D2091570430915804409159045091CD
:101C40005A0461CFD12CC12C63CF4F925F926F9217
:101C50007F928F929F92AF92BF92CF92DF92EF923C
:101C6000FF920F931F93CF93DF93CDB7DEB72C97DF
:101C70000FB6F894DEBF0FBECDBF8C010E940A09DB
:101C8000D801D096CD90DD90ED90FC90D397E1E017
:101C9000F0E0FA83E98320E030E0A901C701B60152
:101CA0000E94841F87FF02C01A821982AA24A3946B
:101CB000B12C20E030E0A901C701B6010E945E1CF2
:101CC00087FD02C0B12CA12C69817A816A197B0938
:101CD000072E000C880B990B0E94651C69877A8778
:101CE0008B879C87A7019601C701B6010E94C41C7F
:101CF0002B013C01D8019896CD90DD90ED90FC90A1
:101D00009B97A7019601C701B6010E94C41CA301BD
:101D100092010E94831D0E94971FF80184A495A43C
:101D2000A6A4B7A429853A854B855C850E94C41C6E
:101D30009B01AC01C501B4010E94021E9801205C08
:101D40003F4F3E832D8321EE3EE245E652E40E9462
:101D5000C41CAD81BE816D937D938D939C9313972D
:101D6000A5019401C501B4010E94C41CA301920104
:101D70000E94831D0E94971F9B01AC01C701B60101
:101D80000E94021E7801B4E4EB0EF11C905821EE83
:101D90003EE245E652E40E94C41CF7016083718371
:101DA000828393838FB7F8948090180390901903DF
:101DB000A0901A03B0901B038FBF7801F4E5EF0EDB
:101DC000F11CF70180819181A281B381A501940169
:101DD000281B390B4A0B5B0BCA01B9010E94631C1B
:101DE0002FE632E143E85AE30E94C41C2B013C0178
:101DF000D7018D929D92AD92BC921397F801E85A4B
:101E0000FF4F208131814281538129833A834B8363
:101E10005C83AD81BE818D909D90AD90BC90F801AA
:101E200024A935A946A957A90E94C41CF801E85B5A
:101E3000FF4F20813181428153810E94831DA50182
:101E400094010E94821D6B017C0120E030E044E39C
:101E500053E40E94841F18163CF420E030E044EB69
:101E600053E4C701B601EDCF20E030E044E353EC8A
:101E7000C701B6010E945E1C87FF0BC020E030E066
:101E800044EB53E4C701B6010E94831D6B017C0142
:101E9000EBCF29813A814B815C8160E070E080E882
:101EA0009FE30E94821D6D837E838F839887A701A5
:101EB0009601C501B4010E94831D29813A814B819D
:101EC0005C810E94C41C6B017C012D813E814F818D
:101ED0005885C501B4010E94C41C9B01AC01C70117
:101EE000B6010E94831D6B017C0120E030E044E3D9
:101EF00053E40E94841F18164CF420E030E044EBB9
:101F000053E4C701B6010E94821DEDCF20E030E00E
:101F100044E353ECC701B6010E945E1C87FF0BC06F
:101F200020E030E044EB53E4C701B6010E94831D7A
:101F30006B017C01EBCFF801E85BFF4FC082D182DF
:101F4000E282F382349780809180A280B380D801AE
:101F5000D8962D913D914D915C91DB9769857A855D
:101F60008B859C850E94C41CA30192010E94C41C05
:101F7000F801E45BFF4FFA87E987208131814281D4
:101F800053810E94831DA50194010E94821D6B0153
:101F90007C0120E030E044EB52E40E94841F1816DC
:101FA0003CF420E030E044E353E4C701B601EDCF58
:101FB00020E030E044EB52ECC701B6010E945E1C09
:101FC00087FF0BC020E030E044E353E4C701B601D3
:101FD0000E94831D6B017C01EBCFA7019601C50117
:101FE000B4010E94831D29813A814B815C810E944A
:101FF000C41C6B017C01A50194016D817E818F81E0
:1020000098850E94C41C9B01AC01C701B6010E94C7
:10201000831D6B017C0120E030E044EB52E40E9420
:10202000841F18164CF420E030E044E353E4C70169
:10203000B6010E94821DEDCF20E030E044EB52EC6F
:10204000C701B6010E945E1C87FF0BC020E030E094
:1020500044E353E4C701B6010E94831D6B017C0178
:10206000EBCFA985BA85CD92DD92ED92FC921397C4
:10207000F801E05BFF4FFA83E983D801DC962D91EC
:102080003D914D915C91DF97C301B2010E94C41C48
:10209000E981FA8120813181428153810E94831D2F
:1020A000A981BA816D937D938D939C9313972C9600
:1020B0000FB6F894DEBF0FBECDBFDF91CF911F9159
:1020C0000F91FF90EF90DF90CF90BF90AF909F90D7
:1020D0008F907F906F905F904F9008954F925F9296
:1020E0006F927F928F929F92AF92BF92CF92DF9228
:1020F000EF92FF92CF93DF9300D000D000D0CDB706
:10210000DEB74B015C018DE894E00E94250E109231
:10211000DD041092DE041092DF041092E0040E94AD
:10212000A6072FB7F89480916F0490917004092E40
:10213000000CAA0BBB0B8093D8019093D901A093FC
:10214000DA01B093DB018091630490916404092E5D
:10215000000CAA0BBB0B8093DC019093DD01A093D4
:10216000DE01B093DF012FBF412C512C3201A301BE
:102170009201C501B4010E94821D6B017C0120E027
:1021800030E0A9010E94841F18163CF520E030E0E1
:1021900040E85FE3C701B6010E94841F18163CF1B6
:1021A00083E694E00E94CA088FE694E00E94CA0881
:1021B00026960FB6F894DEBF0FBECDBFDF91CF914C
:1021C000FF90EF90DF90CF90BF90AF909F908F9057
:1021D0007F906F905F904F90089520E030E040E84E
:1021E0005FEBC701B6010E945E1C87FFD9CFA30138
:1021F0009201C301B2010E94DB1F882309F4B5C01C
:102200008CE791E00E940F0B8CE491E00E940F0B91
:102210008DE894E00E94250EC090DD04D090DE048D
:10222000E090DF04F090E004F7FAF094F7F8F0940F
:102230000E94A6072091DC013091DD014091DE0172
:102240005091DF012B833C834D835E834090D80106
:102250005090D9016090DA017090DB0160916F04B9
:1022600070917004072E000C880B990B6419750986
:10227000860997090E94651C25E535E94FE655E476
:102280000E94611E2B013C01609163047091640403
:10229000072E000C880B990B2B813C814D815E81B0
:1022A000621B730B840B950B0E94651C25E535E9B9
:1022B0004FE655E40E94611E9B01AC01C301B201CF
:1022C0000E94821D21ED32E24BED5DE30E94611E12
:1022D00020EE3EE245E652E40E94C41C90582AE9F2
:1022E00039E949E95EE30E94C41C2B013C0123E368
:1022F00033E343E35FE3C701B6010E94C41C9B01C3
:10230000AC01C301B2010E94831D2B013C01AC0151
:102310009B01C501B4010E94821D20E030E040E431
:1023200050E40E94C41C0E94D31E7A83698346E94C
:1023300050E06CE370E0CE0101960E947807E980DE
:10234000FA80B70183E694E00E94DC0866277727CD
:102350006E197F098FE694E00E94DC086AE070E065
:1023600080E090E00E94190202CF73016201E894BC
:10237000F7F82FEF3FEF4FE75FE7C701B6010E9485
:10238000DB1F81110DC02FEF3FEF4FE75FE7C70164
:10239000B6010E945E1C18161CF480E891E032CF52
:1023A0002FEF3FEF4FE75FE4C301B2010E94841FAC
:1023B00018161CF484E891E025CF2FEF3FEF4FE78C
:1023C0005FECC301B2010E945E1C87FDF3CF20E0E9
:1023D00030E0A901C301B2010E945E1C87FF09C061
:1023E0006DE280E793E00E94740377FA709477F8C7
:1023F00070942AE037ED43EA5BE3C301B2010E9427
:10240000831D2B013C010E94DA1E6B017C010E949E
:10241000631C9B01AC01C301B2010E94821D2B0110
:102420003C014AE0C701B6010E942A0B6EE280E738
:1024300093E00E94740320E030E040E251E4C301E5
:10244000B2010E94C41C2B013C010E94DA1E6B01E8
:10245000F12CE12C4AE0C701B6010E942A0BC7010A
:10246000B6010E94631C9B01AC01C301B2010E9432
:10247000821D20E030E040E251E40E94C41C0E9432
:10248000DA1E90E080E04AE00E942A0BBDCE85ED86
:102490008093BC008091480390914903A0914A0326
:1024A000B0914B030796A11DB11D23E0B695A795EA
:1024B000979587952A95D1F72091BC0024FD03C0FC
:1024C000109246030895409148035091490360914A
:1024D0004A0370914B03452B462B472B69F300971A
:1024E000A105B10541F02AE22A95F1F700C0019754
:1024F000A109B109E1CF809147030C94ED041F922B
:102500000F920FB60F9211242F933F938F939F93A7
:10251000AF93BF938091180390911903A0911A0370
:10252000B0911B033091170323E0230F2D3758F58B
:102530000196A11DB11D209317038093180390935A
:102540001903A0931A03B0931B0380911C0390916D
:102550001D03A0911E03B0911F030196A11DB11D83
:1025600080931C0390931D03A0931E03B0931F033D
:10257000BF91AF919F918F913F912F910F900FBE7F
:102580000F901F90189526E8230F0296A11DB11DEC
:10259000D2CF1F920F920FB60F9211242F933F9319
:1025A0004F935F936F937F938F939F93AF93BF935B
:1025B000EF93FF93E0910201F09103010995FF91E0
:1025C000EF91BF91AF919F918F917F916F915F91AB
:1025D0004F913F912F910F900FBE0F901F90189524
:1025E0001F920F920FB60F9211242F933F934F9388
:1025F0005F936F937F938F939F93AF93BF93EF936B
:10260000FF93E0910001F09101010995FF91EF9195
:10261000BF91AF919F918F917F916F915F914F91FA
:102620003F912F910F900FBE0F901F9018951F9202
:102630000F920FB60F9211242F933F934F935F93F6
:102640006F937F938F939F93AF93BF93EF93FF937A
:1026500080E793E00E945203FF91EF91BF91AF9109
:102660009F918F917F916F915F914F913F912F91AA
:102670000F900FBE0F901F9018951F920F920FB6DC
:102680000F9211242F938F939F93EF93FF93E091D9
:102690008003F09181038081E0918603F0918703AC
:1026A00082FD1BC09081809189038F5F8F73209181
:1026B0008A03821741F0E0918903F0E0E059FC4F72
:1026C000958F80938903FF91EF919F918F912F9127
:1026D0000F900FBE0F901F9018958081F4CF1F921E
:1026E0000F920FB60F9211242F933F934F935F9346
:1026F0006F937F938F939F93AF93BF93EF93FF93CA
:10270000E0918602F0918702309749F0A685B7855F
:102710008585968D91FF14C09C918923A1F4FF912A
:10272000EF91BF91AF919F918F917F916F915F9149
:102730004F913F912F910F900FBE0F901F901895C2
:102740009C91892361F7A389B4899C91858980959F
:1027500089238C93868997890197F1F7608D718D14
:10276000A685B785558538E020E0CB010197F1F7C4
:10277000822F90E095958795282F4C91452309F05D
:102780002068315091F7868D81FD209580918402DB
:1027900090E001968F73992730918502381799F050
:1027A000A0918402B0E0AC5BBD4F2C938093840277
:1027B000828D938D0197F1F7A389B4898C919589C6
:1027C000892B8C93ACCF868D8160868FF1CF1F9241
:1027D0000F920FB60F9211242F933F934F935F9355
:1027E0006F937F938F939F93AF93BF93EF93FF93D9
:1027F0008091B900887F803609F44AC0F0F58832AC
:1028000009F4A7C018F5803109F49BC0B8F48823F7
:1028100009F4F9C0883009F494C0FF91EF91BF9199
:10282000AF919F918F917F916F915F914F913F9168
:102830002F910F900FBE0F901F901895883109F4BB
:1028400088C0803251F78093440314C0803409F467
:102850009DC040F48033B9F38833F9F68093440384
:1028600085ECB0C0803509F485C0883509F496C080
:10287000883499F60E944712D0CF883909F48CC069
:1028800038F5883729F050F4883611F0803729F66A
:1028900083E0809346031092230257C0883809F4DE
:1028A0007BC0803919F0803809F0B7CF80912302BE
:1028B000803208F071C0E091230281E08E0F809396
:1028C00023028091BB00F0E0ED5FFD4F80833DC0AF
:1028D000803B39F0E0F4803A09F479C0883A09F095
:1028E0009CCF84E080934603109202021092010272
:1028F000E0918A02F0918B02099580910102811189
:102900000FC081E0809301021092E10109C0803C78
:1029100009F4A6CF883C09F4A3CF883B09F07DCF0A
:10292000E091020281E08E0F80930202F0E0EF510D
:10293000FE4F80818093BB00909102028091010242
:1029400029C0809121038093BB0085EC8093BC005B
:1029500064CF9091430380914203981758F5E0911A
:10296000430381E08E0F80934303F0E0EE5DFC4F64
:102970008081E9CFE091430381E08E0F8093430390
:102980008091BB00F0E0EE5DFC4F808390914303AB
:10299000809142039817C8F285E8D8CFE0914303AD
:1029A00081E08E0F809343038091BB00F0E0EE5DE9
:1029B000FC4F80838091450381115CCF81E080933F
:1029C000200384EA8093BC001092460326CF85EC56
:1029D0008093BC001092460380912302803230F431
:1029E000E0912302F0E0ED5FFD4F10826091230241
:1029F00070E0E0918802F091890283E092E009950D
:102A0000109223020ACF1092440334CFCF92DF9268
:102A1000EF92FF92109273031092720398EEC92EF8
:102A200093E0D92EE12CF12CC0927403D09275035F
:102A3000E0927603F09277038AE191E0909371033C
:102A40008093700385EC90E090937D0380937C03EA
:102A500084EC90E090937F0380937E0380EC90E081
:102A6000909381038093800381EC90E090938303A3
:102A70008093820382EC90E090938503809384039B
:102A800086EC90E0909387038093860310928903ED
:102A900010928A0310928B0310928C0310921604EA
:102AA00010921504C0921704D0921804E0921904F1
:102AB000F0921A048CE291E0909314048093130432
:102AC0008FEF9FEF90930E0480930D048FEF90E0B3
:102AD0009093100480930F040E947F20909312041F
:102AE0008093110488EF9FEF909309018093080170
:102AF00088E090E090930D0180930C011092EC041B
:102B00001092EB04C092ED04D092EE04E092EF0438
:102B1000F092F0048EE391E09093EA048093E9044C
:102B2000109200051092FF04109202051092010508
:102B300010920405109203051092060510920505E7
:102B4000609107056E7F6D7F6093070566956170E4
:102B500081E068270E942D0161E081E00E945B0115
:102B6000EAE4F1E0E491E093F904E6E3F1E0E491D2
:102B7000F0E0EE0FFF1FE55DFE4F8591949190937D
:102B8000FB048093FA0460E080E00E945B01809186
:102B9000070581FD04C061E080E00E942D011092D4
:102BA000F504E9E4F1E0E491E093F604E5E3F1E013
:102BB000E491F0E0EE0FFF1FEF5DFE4F85919491E1
:102BC0009093F8048093F70410928D0488E6809324
:102BD000900483E194E090938F0480938E0488E4C2
:102BE00091EEAAE7BFE38093E5049093E604A093F7
:102BF000E704B093E8041092990410929A0410929A
:102C00009B0410929C0410929D0410929E041092BA
:102C10009F041092A0041092A1041092A20410929A
:102C2000A3041092A4041092A5041092A60410927A
:102C3000A7041092A8041092A9041092AA0410925A
:102C4000AB041092AC041092AD041092AE0410923A
:102C5000AF041092B00410927B0410927C04109286
:102C60007D0410927E0410927F04109280041092D2
:102C700081041092820410928304109284041092B2
:102C80008504109286048EE090E0909388048093EF
:102C900087048FE090E090938A048093890480E118
:102CA00090E090938C0480938B04109270041092A7
:102CB0006F0482E090E0909372048093710484E04A
:102CC00090E0909374048093730485E090E0909377
:102CD00076048093750486E090E090937804809366
:102CE000770487E090E090937A048093790462E01F
:102CF00082E00E945B0162E084E00E945B0161E08F
:102D000085E00E945B0161E086E00E945B0161E07A
:102D100087E00E945B01109264041092630483E0D8
:102D200090E090936604809365048BE090E090932C
:102D30006804809367048AE090E090936A0480932B
:102D4000690488E090E090936C0480936B0489E0C0
:102D500090E090936E0480936D0462E083E00E94A3
:102D60005B0162E08BE00E945B0161E08AE00E940F
:102D70005B0161E088E00E945B0161E089E00E9404
:102D80005B0180E090E0A0E2B1E48093570490936F
:102D90005804A0935904B0935A0410925B04109203
:102DA0005C0410925D0410925E0480935F04909323
:102DB0006004A0936104B09362044AE959E969E9A7
:102DC0007EE340933B0450933C0460933D04709336
:102DD0003E0410923F04109240041092410410925D
:102DE000420410924304109244041092450410923D
:102DF000460410924704109248041092490410921D
:102E00004A0410924B0410924C0410924D041092FC
:102E10004E0410924F0410925004109251041092DC
:102E2000520422E330E0309354042093530486E9A3
:102E300090E0909356048093550440931F04509360
:102E400020046093210470932204109223041092B2
:102E50002404109225041092260410922704109244
:102E600028041092290410922A0410922B04109224
:102E70002C0410922D0410922E0410922F04109204
:102E800030041092310410923204109233041092E4
:102E90003404109235041092360430933804209391
:102EA000370490933A0480933904FF90EF90DF90B9
:102EB000CF900895CF93DF93CDB7DEB72E970FB69F
:102EC000F894DEBF0FBECDBF789484B5826084BD18
:102ED00084B5816084BD85B5826085BD85B581601E
:102EE00085BD80916E00816080936E00109281009C
:102EF0008091810082608093810080918100816057
:102F00008093810080918000816080938000809117
:102F1000B10084608093B1008091B00081608093A3
:102F2000B00080917A00846080937A0080917A006A
:102F3000826080937A0080917A00816080937A0029
:102F400080917A00806880937A001092C10060EDD1
:102F500077E080E090E00E941902E0918003F09118
:102F6000810382E08083E0917C03F0917D031082F5
:102F7000E0917E03F0917F038FEC808310928803B1
:102F8000E0918403F091850386E08083E0918203E1
:102F9000F0918303808180618083E0918203F091CE
:102FA0008303808188608083E0918203F0918303B2
:102FB000808180688083E0918203F0918303808127
:102FC0008F7D80838BE492E09093010180930001D8
:102FD000809169008C7F816080936900E89A8EE817
:102FE00092E0909303018093020180916900837FB6
:102FF000846080936900E99A10928D0210928C028D
:1030000010924D0310926F030E94CF0481ED92E065
:1030100090938B0280938A0282ED92E090938902D2
:103020008093880261E08BE60E94FE05898360E060
:1030300089E10E94FE0560E08AE10E94FE0580E0D1
:1030400090E0A3E8B2E48093910490939204A0935B
:103050009304B093940468E08BE10E94FE0580E045
:1030600090E0A0E8B6E48093950490939604A09332
:103070009704B093980460E08CE10E94FE058DE80F
:1030800094E00E94250E8091CD049091CE04A091F1
:10309000CF04B091D0048093D5049093D604A0932C
:1030A000D704B093D8048091D1049091D204A09118
:1030B000D304B091D4048093D9049093DA04A093FC
:1030C000DB04B093DC042FB7F8948091180390913F
:1030D0001903A0911A03B0911B032FBF8093E10441
:1030E0009093E204A093E304B093E40482EF90E0B1
:1030F0000E94C103A9806A2D70E090E080E04AE060
:103100000E942A0B8CE491E00E940F0BAA2029F068
:1031100086EC90E00E941C0BFFCF8DE990E00E94AE
:103120001C0B68EE73E080E090E00E9419021092A0
:10313000990410929A0410929B0410929C0410928D
:103140009D0410929E0410929F041092A00410926D
:10315000A1041092A2041092A3041092A40410924D
:10316000A5041092A6041092A7041092A80410922D
:10317000A9041092AA041092AB041092AC0410920D
:10318000AD041092AE041092AF041092B00464EF3C
:1031900071E07E876D8719821A821B821C821986D4
:1031A0001A861B861C861D821E821F821886C12CD1
:1031B000D12C760146015701260137018DE894E0B4
:1031C0000E940A092091B5043091B6044091B704D9
:1031D0005091B804C301B2010E94831D2B013C0130
:1031E0002091B9043091BA044091BB045091BC04C1
:1031F000C501B4010E94831D4B015C0120E030E059
:1032000040E85FE36091BD047091BE048091BF040B
:103210009091C0040E94821D9B01AC01C701B601C0
:103220000E94831D6B017C012091C1043091C20476
:103230004091C3045091C4046D817E818F81988533
:103240000E94831D6D837E838F8398872091C504A0
:103250003091C6044091C7045091C80469857A85AD
:103260008B859C850E94831D69877A878B879C87C5
:103270002091C9043091CA044091CB045091CC04F0
:1032800069817A818B819C810E94831D69837A8305
:103290008B839C8361E070E080E090E00E941902E3
:1032A0008D859E8501979E878D87892B09F086CF16
:1032B00020E030E04AEF53E4C301B2010E94611EF6
:1032C0006093A5047093A6048093A7049093A80428
:1032D00020E030E04AEF53E4C501B4010E94611ED2
:1032E0006093A9047093AA048093AB049093AC04F8
:1032F00020E030E04AEF53E4C701B6010E94611EAE
:103300006093AD047093AE048093AF049093B004C7
:1033100020E030E04AEF53E46D817E818F81988513
:103320000E94611E6093990470939A0480939B0499
:1033300090939C0420E030E04AEF53E469857A855D
:103340008B859C850E94611E60939D0470939E04F2
:1033500080939F049093A00420E030E04AEF53E470
:1033600069817A818B819C810E94611E6093A10496
:103370007093A2048093A3049093A40486E990E040
:103380000E941C0B8DE894E00E94250E88E3809338
:1033900016031092130393E09093140381E080933B
:1033A00012039093900210928F0280938E0260E03D
:1033B00070E080E89FE30E947C0B6624639442E007
:1033C000742E00E010E080911603823009F451C29F
:1033D00088E891E00E946E0B0E94540720E030E0E4
:1033E00040EA51E460917B0470917C0480917D04FB
:1033F00090917E040E945E1CD090160387FF34C01B
:10340000ED2DF0E060911403E62EF12CEE0FFF1F7E
:10341000EF56FD4F21E030E0062E01C0220F0A9446
:10342000EAF78081822B80838D2D0E94B10688234C
:10343000D9F0F701EE0FFF1FE85FFE4FE081ED0DC1
:10344000F0E0EE0FFF1FEF56FD4F92E0E90EF11C8A
:1034500023E0E222FF2421E030E001C0220FEA94C1
:10346000EAF78081822B8083ED2CF12CC09013032E
:103470008C2C912C540162E0A60EB11C73E0A722A3
:10348000BB2420E030E040EA51E460917F04709179
:10349000800480918104909182040E945E1C87FFC9
:1034A0002BC0F701EE0FFF1FEF56FD4F808121E08B
:1034B00030E00C2C01C0220F0A94EAF7822B8083A3
:1034C0006C2D8D2D0E94B1068823B1F0F401EE0F12
:1034D000FF1FE85FFE4FE081ED0DF0E0EE0FFF1FF4
:1034E000EF56FD4F808121E030E00A2C01C0220F11
:1034F0000A94EAF7822B808320E030E040EA51E42E
:103500006091830470918404809185049091860475
:103510000E945E1C87FF33C060911203862E912C9F
:10352000F701EE0FFF1FEF56FD4F81E090E0062EF2
:1035300001C0880F0A94EAF79081892B80838D2D32
:103540000E94B1068823D9F0F401EE0FFF1FE85F57
:10355000FE4FE081ED0DF0E0EE0FFF1FEF56FD4F47
:1035600082E0880E911C93E08922992421E030E0CA
:1035700001C0220F8A94EAF78081822B808390E039
:1035800080E040E0F701EE0FFF1FEF56FD4FA81659
:10359000B90651F0208130E0082E02C035952795FC
:1035A0000A94E2F720FD4F5F01968430910579F788
:1035B000C701880F991F433071F48F569D4FFC014E
:1035C0007182F501EE0FFF1FE85FFE4F8081D80E7C
:1035D000D09211035DC0FC01EF56FD4F408150E0D9
:1035E00030E020E060E0FA01022E02C0F595E79598
:1035F0000A94E2F7E0FD6F5F2F5F3F4F2430310503
:1036000091F7FC01EF56FD4F2181623008F0D4C0E4
:10361000211184C060910D0470910E04E0910F049B
:10362000F091100431976E177F0769F0E091110453
:10363000F09112046F5F7F4F70930E0460930D043E
:10364000E60FF71FC0828F569D4FFC01618222302A
:1036500009F45FC08C2D820F8370E82FF0E05A01CF
:1036600002C0B594A7948A95E2F7A0FC52C0EE0F71
:10367000FF1FE85FFE4F80818D0DE82FF0E0EE0F19
:10368000FF1FEF56FD4F9181911143C080931103AD
:103690000E94CC0680911503882369F0813009F0DF
:1036A000CBC060E070E084EB92E40E946E1086E98B
:1036B00091E00E946E0B6091040170910501809170
:1036C0000601909107010E947C0B80911503909157
:1036D0001403980F93709093140390911303980F11
:1036E00093709093130390911203890F83708093CA
:1036F000120380911103809316030115110509F43B
:1037000062CE0E943E03882309F45DCE0E94000031
:103710005ACE2F5F243009F09ACFBACF709111039F
:103720006FEF20E02230F1F03C2D320F3370E32FA9
:10373000F0E0DA0102C0B595A7953A95E2F7A0FD51
:1037400011C0EE0FFF1FE85FFE4F30813D0DE32FEC
:10375000F0E0EE0FFF1FEF56FD4FE181E61710F48A
:10376000732F6E2F2F5F2430E9F6709311036130B1
:1037700009F08ECF8F569D4FFC01718280910D0410
:1037800090910E048F3F9807A1F0E0911104F09101
:103790001204E80FF91FE081F0E08F3F980729F04D
:1037A000019790930E0480930D043296E370FF27E7
:1037B00009CFF0E0E0E0EFCFFF24F394F20EF182C6
:1037C000E0901103912C30E0D501AA0FBB1FA85F38
:1037D000BE4F323019F16C2D630F6370E62FF0E0AD
:1037E0005A0102C0B594A7946A95E2F7A0FC16C0EE
:1037F000EE0FFF1FE85FFE4F60816D0DE62FF0E0DA
:10380000EE0FFF1FEF56FD4F71817F1518F4609387
:1038100011033ECFEC90ED0C992493943F5F34302C
:10382000C1F6E0921103992009F432CF8F569D4FD3
:103830002E5FFC0121832CCF823079F460E070E0B0
:1038400084EB92E40E946E1060E070E084EB92E4FE
:103850000E946E1084EA91E02CCF833009F02BCFC8
:1038600060E070E084EB92EC0E946E1088EB91E0D7
:1038700020CF83E694E00E94CA088FE694E00E947D
:10388000CA083BCF8EE391E09093EA048093E90469
:103890008091860290918702895E944071F4E09154
:1038A000FC04F091FD0490818091FE0480958923B1
:1038B0008083109287021092860208950E94A01CB5
:1038C00008F481E00895E89409C097FB3EF49095D0
:1038D0008095709561957F4F8F4F9F4F9923A9F0E9
:1038E000F92F96E9BB279395F69587957795679578
:1038F000B795F111F8CFFAF4BB0F11F460FF1BC0BC
:103900006F5F7F4F8F4F9F4F16C0882311F096E94E
:1039100011C0772321F09EE8872F762F05C06623FC
:1039200071F096E8862F70E060E02AF09A95660FB5
:10393000771F881FDAF7880F9695879597F908956E
:10394000990F0008550FAA0BE0E8FEEF16161706B0
:10395000E807F907C0F012161306E407F50798F018
:10396000621B730B840B950B39F40A2661F0232B31
:10397000242B252B21F408950A2609F4A140A695AD
:103980008FEF811D811D08950E94D71C0C94481D46
:103990000E943A1D38F00E94411D20F0952311F03D
:1039A0000C94311D0C94371D11240C947C1D0E9425
:1039B000591D70F3959FC1F3950F50E0551F629FFD
:1039C000F001729FBB27F00DB11D639FAA27F00D78
:1039D000B11DAA1F649F6627B00DA11D661F829F9F
:1039E0002227B00DA11D621F739FB00DA11D621F84
:1039F000839FA00D611D221F749F3327A00D611DA1
:103A0000231F849F600D211D822F762F6A2F112482
:103A10009F5750409AF0F1F088234AF0EE0FFF1FB5
:103A2000BB1F661F771F881F91505040A9F79E3F0C
:103A3000510580F00C94311D0C947C1D5F3FE4F324
:103A4000983ED4F3869577956795B795F795E79562
:103A50009F5FC1F7FE2B880F911D9695879597F96B
:103A6000089597F99F6780E870E060E008959FEF00
:103A700080EC089500240A94161617061806090605
:103A8000089500240A9412161306140605060895D4
:103A9000092E0394000C11F4882352F0BB0F40F45C
:103AA000BF2B11F460FF04C06F5F7F4F8F4F9F4F9C
:103AB000089557FD9058440F551F59F05F3F71F01E
:103AC0004795880F97FB991F61F09F3F79F0879585
:103AD0000895121613061406551FF2CF4695F1DF0E
:103AE00008C0161617061806991FF1CF869571059E
:103AF000610508940895E894BB2766277727CB01D2
:103B000097F908955058BB27AA270E949A1D0C9434
:103B1000481D0E943A1D38F00E94411D20F039F4E2
:103B20009F3F19F426F40C94371D0EF4E095E7FB43
:103B30000C94311DE92F0E94591D58F3BA176207E2
:103B400073078407950720F079F4A6F50C947B1D84
:103B50000EF4E0950B2EBA2FA02D0B01B9019001A8
:103B60000C01CA01A0011124FF27591B99F0593FEC
:103B700050F4503E68F11A16F040A22F232F342F34
:103B80004427585FF3CF469537952795A795F04082
:103B90005395C9F77EF41F16BA0B620B730B840B97
:103BA000BAF09150A1F0FF0FBB1F661F771F881F4F
:103BB000C2F70EC0BA0F621F731F841F48F48795A7
:103BC00077956795B795F7959E3F08F0B0CF939599
:103BD000880F08F09927EE0F9795879508950E9412
:103BE0003A1D60F080E891E009F49EEF0E94411DCB
:103BF00028F040E851E071F45EEF0CC00C94371DE2
:103C00000C947B1DE92FE0780E94591D40F3092E8A
:103C1000052AB1F3261737074807590738F00E2E43
:103C200007F8E02569F0E025E0640AC0EF6307F8D3
:103C3000009407FADB01B9019D01DC01CA01AD0165
:103C4000EF930E94781E0E94481D0E94321E5F91D1
:103C5000552339F02BED3FE049E450FD49EC0C943D
:103C6000831D0895DF93DD27B92FBF7740E85FE319
:103C70001616170648075B0718F4D92F0E94891FEC
:103C80009F938F937F936F930E94D71FE8E6F0E096
:103C90000E945D1F0E94481D2F913F914F915F919F
:103CA0000E94D71CDD2351F09058A2EA2AED3FE094
:103CB00049EC5FE3D0785D270E949A1DDF910C9458
:103CC000481D0E94751E0C94481D0E94411D58F00D
:103CD0000E943A1D40F029F45F3F29F00C94311DF9
:103CE00051110C947C1D0C94371D0E94591D68F3D2
:103CF0009923B1F3552391F3951B550BBB27AA27A5
:103D000062177307840738F09F5F5F4F220F331FDE
:103D1000441FAA1FA9F335D00E2E3AF0E0E832D0A6
:103D200091505040E695001CCAF72BD0FE2F29D0A9
:103D3000660F771F881FBB1F261737074807AB077B
:103D4000B0E809F0BB0B802DBF01FF2793585F4FF0
:103D50003AF09E3F510578F00C94311D0C947C1D77
:103D60005F3FE4F3983ED4F3869577956795B795D2
:103D7000F7959F5FC9F7880F911D9695879597F9DD
:103D80000895E1E0660F771F881FBB1F6217730756
:103D90008407BA0720F0621B730B840BBA0BEE1F6B
:103DA00088F7E09508950E94DA1E6894B1110C948A
:103DB0007C1D08950E94611D88F09F5798F0B92FCF
:103DC0009927B751B0F0E1F0660F771F881F991F50
:103DD0001AF0BA95C9F714C0B13091F00E947B1D5A
:103DE000B1E008950C947B1D672F782F8827B85F6A
:103DF00039F0B93FCCF3869577956795B395D9F7A8
:103E00003EF490958095709561957F4F8F4F9F4FB1
:103E1000089597FB16F40E944D1F0C94101FE89410
:103E2000F92F96EBFF2381F0121613061406440BAC
:103E30009395F69587957795679557954040FF231D
:103E4000B9F71BC099270895882351F49850D2F7E9
:103E5000872B762F652F542F432F322F20E0B1F37D
:103E6000121613061406440B88233AF09A95440F51
:103E7000551F661F771F881FCAF755234AF4440F42
:103E8000551F11F460FF04C06F5F7F4F8F4F9F4F2E
:103E9000880F9695879597F90895909580957095D8
:103EA000609550954095309521953F4F4F4F5F4F0E
:103EB0006F4F7F4F8F4F9F4F0895DF93CF931F9387
:103EC0000F93FF92EF92DF927B018C01689406C002
:103ED000DA2EEF010E94D71CFE01E894A5912591EE
:103EE000359145915591A6F3EF010E949A1DFE016F
:103EF0009701A801DA9469F7DF90EF90FF900F9196
:103F00001F91CF91DF9108950E94A01C08F48FEFBC
:103F100008959B01AC0160E070E080E89FE30C94A1
:103F2000611E19F416F40C94371D0C94E01F0E94C6
:103F3000611DB8F39923C9F3B6F39F57550B87FF5B
:103F40000E94EE1F0024A0E640EA9001805856959A
:103F5000979528F4805C660F771F881F20F026173E
:103F60003707480730F4621B730B840B2029312973
:103F70004A2BA69517940794202531254A2758F7F0
:103F8000660F771F881F20F026173707480730F481
:103F9000620B730B840B200D311D411DA09581F721
:103FA000B901842F9158880F9695879508959B01A4
:103FB000AC010C94C41C0E94A01C880B990B0895A2
:103FC0009F3F31F0915020F4879577956795B7958D
:103FD000880F911D9695879597F9089591505040B7
:103FE000660F771F881FD2F7089597FB072E16F4E8
:103FF000009407D077FD09D00E94652007FC05D00A
:104000003EF4909581959F4F0895709561957F4FEF
:104010000895A1E21A2EAA1BBB1BFD010DC0AA1F09
:10402000BB1FEE1FFF1FA217B307E407F50720F021
:10403000A21BB30BE40BF50B661F771F881F991F9C
:104040001A9469F760957095809590959B01AC01E5
:10405000BD01CF010895609570958095909530953C
:104060004095509521953F4F4F4F5F4F6F4F7F4F7A
:104070008F4F9F4F08950024A7FD00942A0F301DF5
:10408000401D501D601D701D801D901D08952A1932
:104090003B094C095D096E097F09800B910B08955E
:1040A0002A153B054C055D056E057F0580079107C8
:1040B00008950024A7FD00942A17300540055005F7
:1040C00060057005800590050895AA1BBB1B51E192
:1040D00007C0AA1FBB1FA617B70710F0A61BB70B78
:1040E000881F991F5A95A9F780959095BC01CD011D
:1040F0000895EE0FFF1F0590F491E02D09940F93A2
:104100001F93CF93DF938230910510F482E090E00B
:10411000E0910A05F0910B0530E020E0B0E0A0E06E
:10412000309799F42115310509F44AC0281B390B41
:1041300024303105D8F58A819B816115710589F19B
:10414000FB0193838283FE0111C040815181028172
:10415000138148175907E0F04817590799F4109749
:1041600061F012960C93129713961C933296CF011E
:10417000DF91CF911F910F91089500930A0510933D
:104180000B05F4CF2115310551F04217530738F0D4
:10419000A901DB019A01BD01DF01F801C1CFEF01E7
:1041A000F9CF90930B0580930A05CDCFFE01E20F66
:1041B000F31F819391932250310939832883D7CFFC
:1041C0002091080530910905232B41F4209112011B
:1041D00030911301309309052093080520911001B7
:1041E000309111012115310541F42DB73EB74091B1
:1041F000140150911501241B350BE0910805F09135
:104200000905E217F307A0F42E1B3F0B2817390707
:1042100078F0AC014E5F5F4F2417350748F04E0F22
:104220005F1F5093090540930805819391939FCF99
:10423000F0E0E0E09CCFCF93DF930097E9F0FC0142
:10424000329713821282A0910A05B0910B05ED01FD
:1042500030E020E01097A1F420813181820F931F7C
:1042600020910805309109052817390709F061C028
:10427000F0930905E0930805DF91CF910895EA01D5
:10428000CE17DF07E8F54A815B819E014115510594
:10429000B1F7E901FB83EA8349915991C40FD51F16
:1042A000EC17FD0761F4808191810296840F951FC0
:1042B000E90199838883828193819B838A83F0E0DB
:1042C000E0E012968D919C9113970097B9F52D918E
:1042D0003C911197CD010296820F931F2091080502
:1042E000309109052817390739F6309751F51092A2
:1042F0000B0510920A05B0930905A0930805BCCFE1
:10430000D383C28340815181840F951FC817D90779
:1043100061F44E5F5F4F88819981480F591F518327
:1043200040838A819B81938382832115310509F023
:10433000B0CFF0930B05E0930A059ECFFD01DC01A1
:10434000C0CF13821282D7CF10E0C0EBD0E004C000
:10435000FE010E9479202196C13BD107C9F7F8944C
:10436000FFCFD302D3020000803F00000100000015
:10437000FFFF00000C058000000000007403D40261
:104380000103DC03320310032403000000007F0656
:104390005206AE0614044B0638062906000000003B
:1043A0001504D402AE06140471048704FC030D0A3C
:1043B00000426F742053746F707065643A205461CA
:1043C000726765742052656163686564007369642F
:1043D0006557616C6C4572726F72203A20006E6195
:1043E0006E00696E66006F76660055706461746574
:1043F000642057616C6C73005475726E696E67202F
:104400005269676874005475726E696E672031383E
:10441000302064656772656573005475726E696EED
:0844200067204C656674000082
:107E0000112484B714BE81FFF0D085E080938100F7
:107E100082E08093C00088E18093C10086E0809377
:107E2000C20080E18093C4008EE0C9D0259A86E02C
:107E300020E33CEF91E0309385002093840096BBD3
:107E4000B09BFECF1D9AA8958150A9F7CC24DD24C4
:107E500088248394B5E0AB2EA1E19A2EF3E0BF2EE7
:107E6000A2D0813461F49FD0082FAFD0023811F036
:107E7000013811F484E001C083E08DD089C08234E0
:107E800011F484E103C0853419F485E0A6D080C0E4
:107E9000853579F488D0E82EFF2485D0082F10E0AE
:107EA000102F00270E291F29000F111F8ED06801E7
:107EB0006FC0863521F484E090D080E0DECF843638
:107EC00009F040C070D06FD0082F6DD080E0C81688
:107ED00080E7D80618F4F601B7BEE895C0E0D1E017
:107EE00062D089930C17E1F7F0E0CF16F0E7DF06D8
:107EF00018F0F601B7BEE89568D007B600FCFDCFD4
:107F0000A601A0E0B1E02C9130E011968C91119780
:107F100090E0982F8827822B932B1296FA010C0160
:107F200087BEE89511244E5F5F4FF1E0A038BF0790
:107F300051F7F601A7BEE89507B600FCFDCF97BE46
:107F4000E89526C08437B1F42ED02DD0F82E2BD052
:107F50003CD0F601EF2C8F010F5F1F4F84911BD097
:107F6000EA94F801C1F70894C11CD11CFA94CF0C13
:107F7000D11C0EC0853739F428D08EE10CD085E9AC
:107F80000AD08FE07ACF813511F488E018D01DD067
:107F900080E101D065CF982F8091C00085FFFCCF94
:107FA0009093C60008958091C00087FFFCCF809118
:107FB000C00084FD01C0A8958091C6000895E0E648
:107FC000F0E098E1908380830895EDDF803219F02E
:107FD00088E0F5DFFFCF84E1DECF1F93182FE3DFCA
:107FE0001150E9F7F2DF1F91089580E0E8DFEE27F6
:047FF000FF270994CA
:027FFE00040479
:00000001FF
